:020000040800F2
:10000000800B002091010008990100089B01000865
:100010009D0100089F010008A101000800000000E8
:10002000000000000000000000000000A301000824
:10003000A501000800000000A7010008A9010008B0
:10004000AB010008AB010008AB010008091500086E
:10005000AB010008AB010008AB010008AB010008D0
:10006000AB010008AB010008AB0100081D07000848
:10007000AB010008AB010008AB010008AB010008B0
:10008000AB010008AB010008AB010008AB010008A0
:10009000AB010008AB010008AB010008AB01000890
:1000A000AB010008AB010008AB010008AB01000880
:1000B000AB010008AB010008AB010008AB01000870
:1000C000AB010008AB010008AB010008AB01000860
:1000D000AB010008B51B0008AB010008AB0100082C
:1000E000AB010008AB010008AB01000800F002F80A
:1000F00000F03FF80AA090E8000C82448344AAF183
:100100000107DA4501D100F034F8AFF2090EBAE880
:100110000F0013F0010F18BFFB1A43F0010318473B
:100120001446000034460000103A24BF78C878C155
:10013000FAD8520724BF30C830C144BF04680C60ED
:10014000704700000023002400250026103A28BF35
:1001500078C1FBD8520728BF30C148BF0B60704739
:10016000642900F07780002070471FB51FBD10B5CF
:1001700010BD00F075F91146FFF7F7FF01F08CFF95
:1001800000F093F903B4FFF7F2FF03BC01F0CCFEDB
:100190000948804709480047FEE7FEE7FEE7FEE71B
:1001A000FEE7FEE7FEE7FEE7FEE7FEE70448054957
:1001B000054A064B70470000C5180008ED0000080E
:1001C00080050020800B0020800700208007002091
:1001D000704700000FB4044910B503AA029800F05C
:1001E00011F910BC5DF814FB080000202DE9F04166
:1001F0000E460446002020622046E168884730B35E
:10020000252805D0D4E901219047206A401CF2E757
:10021000E168204600278847050018D0A5F1410075
:10022000192802D820354FF4006732462946204667
:100230002760FFF795FF40B1012804D0F61D26F096
:1002400007060836D8E7361DD6E72846DAE7206ADB
:10025000BDE8F0812DE9F0410646002410687529BB
:10026000314616A510D0AFF30080002802DA4042D4
:1002700013A507E031688A0701D512A502E04907F6
:1002800004D511A5012401E0AFF3008000210A226A
:1002900006F1240709E0B0FBF2FCB0FBF2F302FB2D
:1002A0001C00303078541846491C0028F3D12346EE
:1002B0002A463046BDE8F04100F04AB80000000090
:1002C0002D0000002B00000020000000421E12F84C
:1002D000013F002BFBD111F8013B002B02F8013B41
:1002E000F9D1704710B5203AC0F00B80B1E8185032
:1002F000203AA0E81850B1E81850A0E81850BFF410
:10030000F5AF5FEA027C24BFB1E81850A0E81850AE
:1003100044BF18C918C0BDE810405FEA827C24BF02
:1003200051F8043B40F8043B08BF7047D20728BF90
:1003300031F8023B48BF11F8012B28BF20F8023BDF
:1003400048BF00F8012B70477047704770477047EF
:100350002DE9F0470D4699469246044600F12408DF
:100360000168880604D5E06921F01001216000E0F1
:100370000120A84201DD471B00E00027A1697A198E
:1003800002EB0900081AA0612078C00602D42046BA
:10039000AFF30080002608E0D4E901211AF8060036
:1003A0009047206A401C761C20624E45F4DB207882
:1003B000C0060AD52046AFF3008006E0D4E901214B
:1003C00030209047206A401C2062381EA7F10107A8
:1003D000F4DC07E0D4E9012118F805009047206A11
:1003E000401C2062281EA5F10105F3DC2046AFF376
:1003F00000802078000602D50220BDE8F0870120A9
:10040000FBE70000074B70B50D467B4400F011F888
:100410000446284600F020F810B14FF0FF3070BDC0
:10042000204670BDAF1B000001694A1C02610878BC
:10043000704700B58FB0CDE9013100210591054924
:100440007944CDE9031011466846FFF7CFFE0FB09F
:1004500000BD0000E5FFFFFF007B00F0800070475B
:10046000754600F02BF8AE4605006946534620F06D
:100470000700854618B020B5FFF798FEBDE820407C
:100480004FF000064FF000074FF000084FF0000B50
:1004900021F00701AC46ACE8C009ACE8C009ACE803
:1004A000C009ACE8C0098D46704710B50446AFF3EB
:1004B00000802046BDE81040FFF764BE004870474A
:1004C0002005002021B1826842F00102826003E031
:1004D000826822F001028260704721B1826842F492
:1004E0008072826003E0826822F4807282607047CA
:1004F00021B1826842F48012826003E0826822F4B3
:10050000801282607047014600208A6802F004026F
:100510000AB1012000E000207047014600208A68EF
:1005200002F008020AB1012000E00020704700003C
:1005300030B502460020002350680F4C20400D7952
:100540000C6844EA05242043506090680B4C20401E
:10055000D1E902542C434D7944EA4504204390608C
:10056000D06A20F470000C7C641EE4B2234340EA9D
:100570000350D06230BD0000FFFEF0FFFDF7F1FF39
:10058000F0B504460D4600200021092D11DDE0687C
:10059000A5F10A0606EB4607072606FA07F1884387
:1005A000A5F10A0606EB460603FA06F10843E060E9
:1005B0000CE0206905EB4507072606FA07F188439A
:1005C00005EB450603FA06F108432061072A0FDA16
:1005D000606B561E06EB86071F2606FA07F1884356
:1005E000561E06EB860605FA06F10843606322E014
:1005F0000D2A0FDA206BD61F06EB86071F2606FA98
:1006000007F18843D61F06EB860605FA06F1084374
:10061000206310E0E06AA2F10D0606EB86071F26B4
:1006200006FA07F18843A2F10D0606EB860605FAE5
:1006300006F10843E062F0BD816841F00801816085
:100640007047816841F004018160704700B585B052
:100650000121480200F08CFD002000908DF804007C
:100660008DF805004FF4C020029000200390012077
:100670008DF8100069461648FFF75AFF4FF4004006
:1006800000F03AFD0723012200211148FFF778FF0F
:1006900001210F48FFF721FF01210D48FFF712FF4D
:1006A0000B48FFF7C9FF00BF0948FFF736FF0028D6
:1006B000FAD10748FFF7C5FF00BF0548FFF723FF42
:1006C0000028FAD101210248FFF712FF05B000BD52
:1006D0000024014010B5012000F06AFD002000F068
:1006E00067FD10BD08B5014600200090034800904A
:1006F0000098084400900098008808BD006C0040F5
:1007000008B500220092044A0092009A0244009226
:10071000009A116008BD0000006C0040F8B500248C
:10072000022000F053F9002831D0002004E01849DD
:1007300031F810100C44401C0A28F8DB0A2094FB06
:10074000F0F7384601F0A4FE06461248124B134A51
:1007500000210090304601F0E1FC054601F07CFEEE
:100760000F4908800024084601880EA0FFF732FDDB
:100770000D488378427801780CA0FFF72BFD0848DC
:100780000188104801F0C1F9022000F05FF8F8BDBF
:10079000380000200000FA4400007A4400C07F4581
:1007A000000000202564090014050020B5B1C7B081
:1007B000CAB1BCE4A3BA25643A25643A25640D0A9B
:1007C000000000000004004000B58DB00121084683
:1007D00000F09EFC1A4800F053F81A4802901A489C
:1007E0000390002004900A200590002006908020AD
:1007F0000790400008908000099020200A90000295
:100800000B9000200C9002A90D4800F0FEF8012288
:1008100002210B4800F0F0F80B208DF804000020B6
:100820008DF8050001208DF806008DF8070001A85D
:1008300000F050FA0121024800F016F80DB000BD9A
:10084000080002404C2401403800002000F0805194
:1008500011B10349086001E0024948607047000097
:10086000040402400000024021B1026842F001028B
:10087000026004E002684FF6FE731A40026070479F
:1008800001684FF6FE721140016000210160416075
:100890008160C1604B49884208D14A49083949689A
:1008A00041F00F01474A083A51608AE04549143146
:1008B000884208D143490839496841F0F001414A6A
:1008C000083A51607DE03F492831884208D13D49CE
:1008D0000839496841F470613A4A083A516070E059
:1008E00038493C31884208D136490839496841F4D1
:1008F0007041344A083A516063E0324950318842CD
:1009000008D130490839496841F470212D4A083A24
:10091000516056E02B496431884208D12949083991
:10092000496841F47001274A083A516049E0254975
:100930007831884208D123490839496841F070610B
:10094000204A083A51603CE01F49884206D1011F05
:10095000096841F00F01021F116032E01A49143199
:10096000884208D11849091F096841F0F001164A68
:10097000121F116025E014492831884208D112491C
:10098000091F096841F470610F4A121F116018E0D5
:100990000D493C31884208D10B49091F096841F4CF
:1009A0007041094A121F11600BE00749503188421B
:1009B00007D10549091F096841F47021024A121F35
:1009C0001160704708000240080402400146002000
:1009D000002201F0805313B1054B1A6801E0054B6A
:1009E0001A6802EA01030BB1012000E00020704701
:1009F00000040240000002401AB103680B43036088
:100A000002E003688B430360704710B50022026860
:100A100047F6F0739A430C6A8B6823430C692343AF
:100A20004C6923438C692343CC6923434C6A234399
:100A30008C6A23431A430260CB6843600B6883606F
:100A40004B68C36010BD000008B50121042000F010
:100A50008FFB0120ADF8000003208DF8020000207C
:100A60008DF803006946024800F004F808BD000054
:100A7000000801402DE9F041024600250026002033
:100A800000230024002791F803C00CF00F0591F813
:100A900003C00CF0100CBCF1000F03D091F802C0A1
:100AA0004CEA050591F800C0BCF1000F31D0146884
:100AB00000202BE04FF0010C0CFA00F3B1F800C05D
:100AC0000CEA03069E4220D183004FF00F0C0CFA73
:100AD00003F7BC4305FA03FC4CEA040491F803C095
:100AE000BCF1280F06D14FF0010C0CFA00FCC2F843
:100AF00014C00AE091F803C0BCF1480F05D14FF0D3
:100B0000010C0CFA00FCC2F810C0401C0828D1D31C
:100B10001460B1F800C0BCF1FF0F34DD5468002050
:100B20002EE000F1080C4FF0010808FA0CF3B1F8C0
:100B300000C00CEA03069E4221D183004FF00F0C47
:100B40000CFA03F7BC4305FA03FC4CEA040491F8E1
:100B500003C0BCF1280F05D100F1080C08FA0CF80D
:100B6000C2F8148091F803C0BCF1480F07D100F11E
:100B7000080C4FF0010808FA0CF8C2F81080401C6D
:100B80000828CED35460BDE8F0810000F0B50A46D5
:100B9000002300240021002500F00046B6F1004F9C
:100BA00002D11D4EF16901E01B4E7168C0F303458F
:100BB00083B200F44016B6F5401F08D121F07061F1
:100BC000154E766826F07066134F7E6012E000F4D2
:100BD0008016B6F5801F06D1032606FA05F4A14358
:100BE00041F0706106E0460D360103FA06F6B143A6
:100BF00041F0706122B1460D360103FA06F6314329
:100C000000F00046B6F1004F02D1034EF16101E061
:100C1000014E7160F0BD000000000140416170476D
:100C20000161704710B54FF480710948FFF7F8FF74
:100C30004FF400710648FFF7F3FF4FF400710448CA
:100C4000FFF7ECFF4FF480710148FFF7E7FF10BD9D
:100C5000000C014010B54FF480710748FFF7E0FF2A
:100C60004FF400710448FFF7D9FF4FF400710248B8
:100C7000FFF7D6FF10BD0000000C014010B54FF487
:100C800080710448FFF7CCFF4FF480710148FFF7F3
:100C9000C5FF10BD000C01400146CA1701EB92725E
:100CA0009210A1EB820292B9642091FBF0F200FB5A
:100CB000121050B94FF4C87091FBF0F200FB121003
:100CC00008B9012070470020FCE70120FAE7002066
:100CD000F8E7000070B5002100230F22C47804B3A8
:100CE000154C246804F4E064C4F5E064210AC1F101
:100CF0000403CA40447804FA03F184781440214381
:100D000009010E4C0678A155047804F01F05012452
:100D1000AC4005786D11AD0005F1E025C5F8004146
:100D200009E0047804F01F050124AC40044D067866
:100D3000761145F8264070BD0CED00E000E400E0BF
:100D400080E100E002490143024A1160704700005F
:100D50000000FA050CED00E070B5002418E004F185
:100D6000B000002100F0B5F90021084600F0B1F90B
:100D70000021102000F0ADF9002505E00121002040
:100D800000F0A7F9681CC5B2802DF7DB601CC4B267
:100D9000082CE4DB70BD0000F0B5144600267F2867
:100DA00001DC3F2900DDF0BD0B46CF1701EB577783
:100DB000FF10C7F10707FAB2CF1701EB5777FF1003
:100DC000A1EBC707FDB2C5F107070123BB40DEB2A7
:100DD0004CB10A4B03EBC0039B5C3343074F07EB5B
:100DE000C007BB5408E0054B03EBC0039B5CB34357
:100DF000024F07EBC007BB5400BFD4E7140100202B
:100E000008B50121092000F0B3F901210220FFF704
:100E1000BDFE4FF44070ADF8000010208DF80300C7
:100E200003208DF8020069463C48FFF723FE4FF48B
:100E300040713A48FFF7F4FE4FF4487001F098F81B
:100E40000021AE2000F045F90021084600F041F9EC
:100E50000021102000F03DF90021402000F039F978
:100E60000021B02000F035F90021812000F031F997
:100E70000021FF2000F02DF90021A12000F029F928
:100E80000021A62000F025F90021A82000F021F97A
:100E900000213F2000F01DF90021C02000F019F9C9
:100EA0000021D32000F015F90021084600F011F9C7
:100EB0000021D52000F00DF90021802000F009F973
:100EC0000021D82000F005F90021052000F001F9EB
:100ED0000021D92000F0FDF80021F12000F0F9F800
:100EE0000021DA2000F0F5F80021122000F0F1F8DE
:100EF0000021DB2000F0EDF80021302000F0E9F8BF
:100F000000218D2000F0E5F80021142000F0E1F828
:100F10000021AF2000F0DDF808BD0000000C01400A
:100F200070B500241BE004F1B000002100F0D1F8FE
:100F30000021084600F0CDF80021102000F0C9F88B
:100F4000002508E0074901EBC501085D012100F01B
:100F5000C0F8681CC5B2802DF4DB601CC4B2082C3C
:100F6000E1DB70BD140100202DE9F84F80460F46EB
:100F700016461C46BA462046E31704EB5373DB10B3
:100F800021464FEAE47C04EB5C7C4FEAEC0CA4EBDA
:100F9000CC0CBCF1000F02D04FF0010C01E04FF07F
:100FA000000C6344224604EBD27C4FEA6C0C03FB3A
:100FB0000CF303F0FF0BA6F12000C6B200254EE0B3
:100FC0000C2C07D106EB4600274901EB8000405D61
:100FD000009013E0102C05D1244800EB0610405D72
:100FE00000900BE0182C07D106EBC600204901EB5E
:100FF0008000405D009001E0BDE8F88F4FF00009EF
:1010000027E0009800F0800028B1394640460A9A4F
:10101000FFF7C2FE09E00A9808B9012000E00020AD
:10102000024639464046FFF7B7FE00984006000EDC
:101030000090781CC7B2A7EB0A00A04205D1574622
:1010400008F1010000F0FF0806E009F1010000F0DE
:10105000FF09B9F1080FD4DB00BF681CC5B25D45BC
:10106000AEDB00BFC8E7000042270008B62B00082F
:10107000A6310008F8B506460F4615461C4621E085
:1010800004EBD4714910C1F18001B14202DA0026AB
:101090003819C7B2C4F14000B84204DA002006464D
:1010A0000746FFF759FE012000902A78234639466B
:1010B0003046FFF759FF204604EBD07106EB610183
:1010C000CEB26D1C28787E2802DC28782028D7DA5A
:1010D000F8BD70B504460D461DB1E0B200F00EFF3C
:1010E00002E0E0B200F0F4FE70BD000001490862C9
:1010F0007047000000000E4201460020034A50687D
:1011000020F4404008435060704700000010024047
:1011100029B1064A52690243044B5A6104E0034A6A
:1011200052698243014B5A6170470000001002402F
:1011300029B1064AD2690243044BDA6104E0034A4A
:10114000D2698243014BDA6170470000001002400F
:1011500029B1064A12690243044B1A6104E0034AAA
:1011600012698243014B1A6170470000001002406F
:1011700029B1064A92690243044B9A6104E0034A8A
:1011800092698243014B9A6170470000001002404F
:1011900029B1064AD2680243044BDA6004E0034AEC
:1011A000D2688243014BDA607047000000100240B1
:1011B00001490860704700004004424230B50021F8
:1011C0000022002400232D4D6D6805F00C0121B193
:1011D000042905D0082923D105E0294D056022E026
:1011E000274D05601FE0254D6D6805F47012234DF5
:1011F0006D6805F48034022505EB92421CB9214D3F
:10120000554305600BE01D4D6D6805F400351DB1BB
:101210001C4D5543056002E0194D5543056002E041
:10122000174D056000BF00BF144D6D6805F0F0015B
:101230000909154D6B5C0568DD4045600F4D6D6813
:1012400005F4E061090A104D6B5C4568DD4085607E
:101250000A4D6D6805F46051C90A0B4D6B5C456819
:10126000DD40C560054D6D6805F44041890B074DB3
:101270006B5CC568B5FBF3F5056130BD001002403D
:1012800000127A0000093D002400002034000020F4
:1012900010B501460022002300204A11012A02D184
:1012A000094C236806E0022A02D1074C236A01E0B8
:1012B000054C636A01F01F02012494401C400CB1EC
:1012C000012000E0002010BD0010024000210B4A68
:1012D00011700A4A203A82F82010012802D004280E
:1012E00008D103E00121054A117004E00521034AF9
:1012F000117000E000BF00BF7047000020100240E6
:1013000001490860704700003C0442420249096AF2
:101310000143014A116270470010024002490988E6
:101320008143014A11807047042800400348008827
:1013300040F0100001490880704700000428004078
:10134000034800884FF6EF71084001490880704754
:101350000428004070B500260024002500F07CF829
:1013600006463948B6FBF0F438480088A0423CD025
:1013700036490C8040F2B27510E02846FFF78CFC2D
:1013800040B1B4F5B77F02D3A4F5B77404E0681C8C
:1013900085B206E0A4F26D14681C85B2B4F5B67F80
:1013A000EBD800BF2A488580002516E028498888A8
:1013B000FFF772FC30B1012D04D11D2C01D31D3C6F
:1013C00009E00CE02348405DA04203D82148405D7D
:1013D000241A00E003E0681C85B21C2CE6D200BF92
:1013E000681C1B498871601CC8711748B6FBF0F176
:1013F00000FB11641649CC704FF46160B4FBF0F04F
:1014000008704FF46160B4FBF0F100FB11403C2127
:10141000B0FBF1F00E4948704FF46160B4FBF0F19D
:1014200000FB11403C21B0FBF1F201FB1200084926
:1014300088700B46DA799979988800F029F8044980
:101440000872002070BD0000805101000E000020D5
:101450001405002026470008002103480188001FCA
:10146000008841EA004070471C28004001460020E7
:10147000064A12880A40D0B2044A121F12880A4053
:1014800012B108B1012000E000207047042800409C
:10149000F0B503460C461546642093FBF0F0C6B247
:1014A000642093FBF0F700FB1730C1B2132E02DD6E
:1014B00001F16400C1B20846CF1701EB977701EB49
:1014C000A707BAB2072092FBF0F700FB172082B201
:1014D0005719601EDFF82CC01CF80000384482B297
:1014E000CF1701EB9777BF10A1EB87071FB9032C2C
:1014F00001DA501E82B2072092FBF0F700FB1720A2
:10150000C0B2F0BD1A4700080EB50120FFF7AEFFCC
:1015100008B1FFF71FFF0220FFF7A8FFA0B10220CC
:10152000FFF7FCFEFFF716FF0A4880780949497863
:10153000084A1278CDE9002102900648C3798279E1
:10154000818805A0FEF746FE0520FFF7E7FE00F0C4
:1015500015F90EBD14050020416C61726D205469AF
:101560006D653A25642D25642D25642025643A2572
:10157000643A25640A00000029B1064A1288024331
:10158000044B1A8004E0034A12888243014B1A80FC
:1015900070470000002800401CB5002401214FF0D6
:1015A000C050FFF7C5FD0120FFF7A0FD0420FFF7A5
:1015B00099F845F25001884240D0FFF78BF801209E
:1015C000FFF784FE04E0601CC4B20A2000F0D0FCE7
:1015D0004120FFF75DFE08B9FA2CF4DBFA2C01DBA1
:1015E00001201CBD4FF48070FFF790FE0120FFF733
:1015F00087FE00F0C3F800F0CBF801210846FFF7A2
:10160000BBFF00F0BBF8FFF791FE47F6FF7000F05C
:10161000A5F800F0B3F8372032210B231422CDE9CE
:101620000010062140F2E47000F026F8FFF788FE73
:1016300045F250010420FFF763F807E000F0A8F836
:1016400001210846FFF798FF00F098F800F004F831
:10165000FFF780FE0020C4E708B503208DF80000E6
:1016600000208DF801008DF8020001208DF80300A4
:101670006846FFF72FFB08BD2DE9F05F06460F46D1
:1016800090469946DDE90AAB002440F2B2708642EA
:1016900003DB40F63300864202DD0120BDE8F09F07
:1016A00040F2B2750AE02846FFF7F6FA10B120487A
:1016B000044401E01F480444681C85B2B542F2DBD3
:1016C000781EC7B2002510E01B48405D40F2A32100
:1016D000484304EBC0143046FFF7DEFA18B1012D81
:1016E00001D116480444681C85B2BD42ECDBA8F168
:1016F000010040F2A321484304EBC014C9EB491098
:10170000C0EB092004EB0014CAEB0A1004EB8004C0
:101710005C4401214FF0C050FFF70AFD0120FFF7A4
:10172000E5FC204600F00CF800F028F80020B5E7B2
:101730000085E2018033E101264700088051010065
:1017400000B50246FFF7F2FD100C03490880091DA1
:101750000A80FFF7F5FD00BD1828004000B50246DD
:10176000FFF7E4FDC2F3034003490880091D0A8026
:10177000FFF7E6FD00BD00000828004000BF034859
:10178000008800F020000028F9D0704704280040AD
:10179000074800884FF6F77108400549088000BFE8
:1017A0000348008800F008000028F9D070470000C6
:1017B0000428004010B500F001F810BD0CB5002061
:1017C000019000903348006840F48030314908604F
:1017D00000BF3048006800F4003000900198401CC1
:1017E0000190009818B90198B0F5A06FF1D129487F
:1017F000006800F4003010B10120009001E00020EA
:1018000000900098012843D12348006840F0100060
:10181000214908600846006820F003000860084677
:10182000006840F0020008601A48406819494860A2
:101830000846406848600846406840F48060486058
:101840000846406820F47C1048600846406840F430
:10185000E81048600846006840F08070086000BFEB
:101860000C48006800F000700028F9D00948406872
:1018700020F00300074948600846406840F0020035
:10188000486000BF0348406800F00C000828F9D108
:101890000CBD00000010024000200240042808D1C6
:1018A0004FF0E021096941F004014FF0E02211619D
:1018B00007E04FF0E021096921F004014FF0E02238
:1018C0001161704710B51348006840F001001149DC
:1018D000086008464068104908400E4948600846BC
:1018E00000680E4908400B4908600846006820F46B
:1018F000802008600846406820F4FE0048604FF4ED
:101900001F008860FFF756FF4FF000600449086031
:1019100010BD0000001002400000FFF8FFFFF6FEBF
:1019200008ED00E030B587B005460C4601210846B9
:10193000FFF7FEFBADF81450ADF810400020ADF8F5
:101940001600ADF8120004A94FF0804000F0E0F856
:101950006020ADF800000120ADF802000920ADF8CC
:1019600006000220ADF808006946400700F06EF856
:101970000121880700F04EF80121880700F056F891
:1019800007B030BD30B589B005460C4601210220B4
:10199000FFF7CEFB01210920FFF7EAFB01211A48DE
:1019A000FFF7F4F82020ADF8200018208DF8230070
:1019B00003208DF8220008A91448FFF75BF8ADF862
:1019C0001850ADF814400020ADF81A00ADF816001C
:1019D00005A90F4800F09CF86020ADF80400012034
:1019E000ADF806000020ADF80C0001A9084800F091
:1019F0002DF80821064800F07BF80121044800F08A
:101A000009F809B030BD000000081A00000C0140C0
:101A10000004004021B1028842F00102028004E08B
:101A200002884FF6FE731A400280704731B1B0F859
:101A3000442042F40042A0F8442005E0B0F84420DD
:101A4000C2F30E02A0F844207047000070B50024D5
:101A500000220023058C4FF6EF7635400584028C7A
:101A60008388048B48F6FF752C404FF6FF452C40C9
:101A70000D884FF6FF7606EA05252C434FF6DF75F5
:101A80002A400D8906EA05152A434D8806EA051500
:101A90002A43154DA84202D0144DA8421DD14FF63D
:101AA0007F752A404D894FF6FF7606EA05152A43D1
:101AB0004FF6BF752A408D8806EA05152A434FF672
:101AC000FF352B404FF2FF752B408D8906EA8505C7
:101AD0002B43CD8906EA85052B4383800483CD887B
:101AE0000587028470BD0000002C014000340140D5
:101AF0000A460021018B4FF2FF7319404FF6FF7326
:101B000003EA0223194301837047018770470000ED
:101B1000002202881D4B98420ED01D4B98420BD0DC
:101B2000B0F1804F08D01B4B984205D01A4B984219
:101B300002D01A4B984204D14FF68F731A404B884B
:101B40001A43174B984207D0164B984204D04FF6D1
:101B5000FF431A40CB881A4302808B8883850B8809
:101B600003850A4B98420BD0094B984208D00E4B84
:101B7000984205D00D4B984202D00D4B984201D1AE
:101B80000B7A03860123838270470000002C0140FA
:101B9000003401400004004000080040000C0040F8
:101BA000001000400014004000400140004401408B
:101BB0000048014010B540F225511D4800F098F84A
:101BC00010B31B4800F050F9C4B21A48008800F462
:101BD0000040C8B91748008800F4804060B10A2C62
:101BE00003D000201349088020E01248008840F408
:101BF00000401049088019E00D2C06D10D480088DE
:101C000040F480400B49088010E00A480088C0F387
:101C10000D0009490C5407480088401C05490880FC
:101C200008460088C72801DD0020088010BD00009C
:101C3000003801400C0000204C00002021B18289B6
:101C400042F40052828104E082894DF6FF731A400B
:101C50008281704710B504462048844209D1012191
:101C60008803FFF795FA00214FF48040FFF790FAC0
:101C700032E01B48844209D101214804FFF768FA89
:101C800000214FF40030FFF763FA25E01548844245
:101C900009D101218804FFF75BFA00214FF480206D
:101CA000FFF756FA18E01048844209D10121C80410
:101CB000FFF74EFA00214FF40020FFF749FA0BE03E
:101CC0000A48844208D101210805FFF741FA0021A2
:101CD0004FF48010FFF73CFA10BD000000380140BF
:101CE0000044004000480040004C004000500040CC
:101CF00070B50246002400230025002040F66A1635
:101D0000B14200D100BFC1F3421501F01F0301260B
:101D100006FA03F3012D02D19689334006E0022D25
:101D200002D1168A334001E0968A33400C12012614
:101D300006FA04F41688344013B10CB1012000E017
:101D4000002070BDF0B503460024002600250020C9
:101D500040F66A17B94200D100BF1846C1F34214D9
:101D600001F01F06012707FA06F5012C01D10C30FE
:101D700004E0022C01D1103000E014301AB10768E1
:101D80002F43076002E00768AF430760F0BD000023
:101D90002DE9F04786B005460E460024A24600BF56
:101DA000A1460027B08900B100BF2F462C8A4CF60F
:101DB000FF700440F08804432C82AC894EF6F31087
:101DC0000440B08831890843718908430443AC81D9
:101DD000AC8A4FF6FF400440B0890443AC8201A8AE
:101DE000FFF7ECF91F48874202D1DDF810A001E0AF
:101DF000DDF80CA0A88900F4004040B10AEBCA004D
:101E000000EB0A1031684900B0FBF1F807E00AEB7B
:101E1000CA0000EB0A1031688900B0FBF1F86420B9
:101E2000B8FBF0F004012009642101FB1089A889A6
:101E300000F4004040B1322000EBC900B0FBF1F0EB
:101E400000F00700044308E0322000EB0910642191
:101E5000B0FBF1F000F00F0004432C8106B0BDE8A8
:101E6000F08700000038014001468888C0F3080070
:101E7000704700002DE9F04105462C464FF4807173
:101E80001248FEF7CBFE00261CE0274607F080072D
:101E9000802F04D1B9000D48FEF7C2FE04E04FF4D4
:101EA00000710A48FEF7BAFE6006040E4FF4807116
:101EB0000648FEF7B5FE4FF480710448FEF7AEFE0B
:101EC000701CC6B2082EE0DBBDE8F081000C0140BA
:101ED00010B50446FEF7A6FE7820FFF7CBFFFEF70D
:101EE000CDFE0020FFF7C6FFFEF7C8FE2046FFF735
:101EF000C1FFFEF7C3FEFEF7ADFE10BD10B50446F0
:101F0000FEF790FE7820FFF7B5FFFEF7B7FE402002
:101F1000FFF7B0FFFEF7B2FE2046FFF7ABFFFEF77C
:101F2000ADFEFEF797FE10BD00BF704710B56FF015
:101F30000400FFF7B3FC0A4800680A49B0FBF1F05F
:101F4000094908700846007800EB4001C1EBC01059
:101F50004FF6FF7101EAC0000449088010BD00007F
:101F60001000002000127A0002000020040000206F
:101F70000146114A12884A434FF0E0235A61002279
:101F80009A611A46126942F001021A6100BF4FF0CD
:101F9000E022106900F001021AB100F48032002A38
:101FA000F5D04FF0E022126922F001024FF0E02359
:101FB0001A6100229A6170470400002000BF054AA0
:101FC000128802F04002002AF9D0C2B2014B1B1D58
:101FD0001A807047003801402DE9F04F8BB08146E0
:101FE0000C469246282222A101A8FEF77BF9002682
:101FF000BAF10A0F09D1B9F1000F06DAC9F10007E9
:102000002D223046761C225400E04F4600BFB7FB1D
:10201000FAF00AFB107001A90A5C3046761C2254C3
:10202000B7FBFAF7002FF2D10020A05520782D2819
:1020300002D14FF0010801E04FF0000845460CE0E6
:1020400014F805B0701E4044401B205C6055701EA3
:102050004044401B04F800B06D1C701E00EBD071B2
:10206000B5EB610FECDD20460BB0BDE8F08F000052
:1020700030313233343536373839414243444546BE
:102080004748494A4B4C4D4E4F5051525354555668
:102090005758595A000000001FB5002000900190C9
:1020A00002900390FFF742FF4FF4A060FEF74AFE54
:1020B0004FF4E13000F056F8472144F61F60FFF777
:1020C00061FC472140F2F310FFF72CFCFEF77CFB8C
:1020D000FEF7BAFCFEF7BAFAFFF75EFAFEF790FEDB
:1020E000FEF73AFE14E00A2269460A480088FFF724
:1020F00073FF09A16846FEF7E9F818236A46032131
:102100000620FEF7B7FFFEF70BFF0120FFF730FFB9
:10211000E9E7000000000020207573002DE9FC5F56
:1021200006460F4614461D46DDF8308039462046E7
:1021300000F092FA29460190404600F08DFA83465D
:102140003946304600F088FA5946009000F0B8F958
:102150008246019900F0BEF88146294600F058F801
:10216000BDE8FC9F10B586B00446012144F2090089
:10217000FEF7FEFF01210420FEF708FD2248FFF7CD
:1021800069FD4020ADF8140003208DF816001820DA
:102190008DF8170005A91D48FEF76CFC8020ADF8EE
:1021A000140004208DF8170005A91848FEF762FCFA
:1021B00001940020ADF80800ADF80A00ADF80C005D
:1021C000ADF810000C20ADF80E0001A90E48FFF785
:1021D000DFFD25208DF8000003208DF801008DF82B
:1021E000020001208DF803006846FEF773FD01220E
:1021F00040F225510448FFF7A5FD01210248FFF7F1
:102200001DFD06B010BD000000380140000C01406B
:1022100090EA010F48BF81F0004100F12482421A88
:102220003CBF801A89184FEAD0524FF07F4C1CEA0D
:10223000410FA2EBD15318BF9CEA026F00F03B8024
:102240004FF0004C4CEA00204CEA012121FA03FC3B
:1022500010EB0C0C1ED202F1FF325FEA1C2040EBA7
:10226000C25038BF70471CF07F0F4FEA400C18BFB8
:10227000BCF17F4F38BF7047C3F12003994008BFBE
:1022800020F00100BCF17F4F38BF7047A0F1C04083
:1022900000F0DDB94FEA3C00000A40EBC25028BF15
:1022A0001CF0FF0F4FEA400CE6D018BFBCF17F4F87
:1022B00038BF7047EAE79CEA026F05D010EA5C0F6E
:1022C00008BF00F00040704710B500F07AF900BF79
:1022D00064FBBE3E4FF47F0C1CEAD0121EBF1CEA0A
:1022E000D11392EA0C0F93EA0C0F00F0858090EA6C
:1022F000010F48BF42F4807240F4000C41F400002A
:102300002CF07F4120F07F4000B58142A2EB030218
:102310000FF2081CACEB504EC0F100009EF800E03C
:102320004FEA4E0E00FB0EFC38BF49004FEA2C1C52
:1023300002F5FA020CFB0EF34FEACE1E4FEA112C07
:102340004FEAC1210EEB635E42EB22420EFB0CFC16
:102350004FEA1C5300FB03114FEA112C4FEA0131E5
:102360000EFB0CFC4FEADC4C00FB0C11C14228BFF9
:1023700009184CEB03335DF804EB10EB410143EB20
:10238000C250B2F57C0F38BF704729D512F0F00F5C
:102390001CBF00F1C04000F0004070470081828304
:1023A0008485868788898B8C8D8E8F919293959664
:1023B00097999A9C9D9FA0A2A3A5A7A8AAACAEB0EE
:1023C000B2B3B5B7B9BCBEC0C2C5C7C9CCCED1D4F3
:1023D000D7D9DCDFE2E6E9ECF0F3F7FAFE00000023
:1023E0004FEA400C0CF1807CBCF17E4F28BF704757
:1023F000B0F1C04000F02BB990EA010F0CEAD11304
:1024000048BF42F48072624538BF634507D213F477
:102410007F0F16D080EA010000F00040704710B531
:1024200000F0CFF8097EFC3E00F005B880EA01001C
:1024300000F00040704780EA010000F0004000F02A
:1024400006B912F47F0F04BF0248704780EA01000A
:1024500000F0FDB80000C07F41000B0ED3F19E02DA
:1024600008D950F400034FEA032323FA02F048BFCF
:102470004042704710B500F0A4F800BF4992248094
:10248000002070476FF0004282EA20007047000091
:1024900010F0004148BF4042B0FA80F310FA03F256
:1024A000C3F19D030BD051EAC35101EB1220530637
:1024B00038BF704700F1010008BF20F001007047ED
:1024C0004FF47F0C1CEAD0121EBF1CEAD11392EA13
:1024D0000C0F93EA0C0F00F0478090EA010F48BF01
:1024E00042F480724FF0004C4CEA00204CEA01218B
:1024F00002EB0302A0FB0113A2F50002002918BFA2
:1025000043F001035B0028BF4FEA330342EB224252
:102510005FEA132C4CEBC2502EBFBCEB436FB2F5FD
:102520007C0F70474FEA036CBCF1004F08BF20F0EE
:102530000100B2F57C0F38BF70470BD582F0FF0267
:1025400012F5803FC8BF704700F1C040D8BF00F00F
:102550000040704700F5000C5FEA4C0C48BF704724
:10256000B0F1C04000F073B890EA010F0CEAD1134B
:1025700048BF42F48072624538BF634504D280EAA6
:10258000010000F00040704710B500F01AF800BFDD
:102590008900013E00F007B800F009B85FEA410C7D
:1025A0005FEA1C6C08D080EA010000F050B85FEAD6
:1025B000400C5FEA1C6CF6D14FF00040A0F58000A3
:1025C00070470EF1020E2EF0030E5EF8044B24420B
:1025D00004D44FEA4102B2F17F4F11D84FEA4003D1
:1025E000B3F17F4F0CD80ED14FEAD07CB2F17F4FC0
:1025F0000CEB4C0C0CF1020C08BF4CEBD17C04E052
:102600004FF0080C01E04FEAD17C0CEB4C0324FAAC
:1026100003F404F00704B4F1040C06D20EEB840CAE
:10262000BDE810404CF0010C6047DFE80CF00708F3
:1026300002024FF00040A0F5800010BD08464200A5
:1026400018BFD2F1807288BF00F0004010BDFF219A
:1026500041EAD050C005704790EA010F48BF81F0B1
:1026600000413FF5DCAD421A04D882F00042A0EBF5
:10267000020011444FEAD0524FF07F4C1CEA410F48
:10268000A2EBD15318BF9CEA026F4AD04FF0004C26
:102690004CEA00204CEA012121FA03FCB0EB0C0CBF
:1026A0000FD412F0FE0F36D05FEA4C001DD5001299
:1026B00040EBC25038BF70471CF03F0F18BF704747
:1026C0000BE0A2F101025FEA1C2040EBC25038BFD0
:1026D00070471CF07F0F18BF7047C3F1200399406B
:1026E00014BF401E20F00100704780084FEA1223FB
:1026F00008BF7047B0FA80FCA2EB0C02CCF1280CAA
:1027000060FA0CF093EA122F04BF00EBC25070473E
:102710004FEAC3707047130A5FEADC1008BF7047C6
:10272000F6E79CEA026F04D010EA5C0F08BF0020B5
:10273000704710B5FFF745FF40DFF63E81F00040DF
:1027400070470000000000000000000000000000D2
:1027500000003F400000000000000000300040008A
:1027600030004000000009000BC03D000BC03D00E0
:10277000090018C024407FE022403180000018008A
:1027800024C01B000D803240018003801C40274084
:102790001C800740004010006000000000000000A6
:1027A00000000000000000001F80204040200000CA
:1027B000402020401F8000000000090006001F800C
:1027C000060009000000040004003F80040004002B
:1027D0000000001000600000000000000000040085
:1027E0000400040004000400000000000040000099
:1027F000000000000000002001C00600380040007A
:1028000000001F802040204020401F80000000006A
:1028100010403FC000400000000018C0214022408E
:1028200024401840000010802040244024401B8099
:10283000000002000D0011003FC0014000003C807C
:10284000244024402440238000001F802440244052
:102850003440038000003000200027C038002000F2
:1028600000001B802440244024401B8000001C00EA
:1028700022C0224022401F800000000000000840CB
:1028800000000000000000000000046000000000E4
:102890000000000004000A001100208040400900F0
:1028A00009000900090009000000000040402080E4
:1028B00011000A0004001800200023402400180022
:1028C00000001F802040274029401F40000000409A
:1028D00007C039000F0001C0004020403FC0244025
:1028E00024401B8000001F8020402040204030807A
:1028F000000020403FC0204020401F8000002040BA
:102900003FC024402E4030C0000020403FC0244043
:102910002E00300000000F00108020402240338045
:10292000020020403FC0040004003FC0204020407F
:1029300020403FC020402040000000602020202098
:102940003FC02000200020403FC024400B0030C08A
:10295000204020403FC020400040004000C03FC019
:102960003C0003C03C003FC0000020403FC00C4082
:1029700023003FC020001F802040204020401F80B7
:10298000000020403FC024402400180000001F80A9
:102990002140214020E01FA0000020403FC02440F3
:1029A000260019C0004018C0244024402240318035
:1029B0000000300020403FC02040300000002000D8
:1029C0003F80004000403F80200020003E0001C0CA
:1029D000070038002000380007C03C0007C038005E
:1029E0000000204039C0060039C02040000020000F
:1029F000384007C0384020000000304021C0264049
:102A0000384020C00000000000007FE0402040204F
:102A10000000000070000C00038000400000000077
:102A2000402040207FE00000000000002000400027
:102A30002000000000000010001000100010001026
:102A40000010000000004000000000000000000036
:102A500002800540054003C0004020003FC0044004
:102A6000044003800000000003800440044006404E
:102A7000000000000380044024403FC000400000EC
:102A800003800540054003400000000004401FC0D3
:102A9000244024402000000002E00550055006506C
:102AA000042020403FC00440040003C00040000058
:102AB000044027C000400000000000100010041077
:102AC00027E00000000020403FC00140070004C094
:102AD0000440204020403FC000400040000007C0AC
:102AE000040007C0040003C00000044007C0044005
:102AF000040003C000400000038004400440038041
:102B00000000041007F0045004400380000000009F
:102B100003800440045007F00010044007C0024046
:102B2000040004000000000006400540054004C009
:102B30000000000004001F8004400040000004006A
:102B400007800040044007C000400400070004C0A4
:102B5000018006000400060001C0070001C0060055
:102B60000000044006C0010006C00440000004103C
:102B7000071004E00180060004000000044005C0C6
:102B80000640044000000000000004007BE04020FC
:102B90000000000000000000FFF000000000000046
:102BA00040207BE004000000000040008000400066
:102BB0002000200040000000000000000000000095
:102BC0000000000000000000000000001FCC000C0E
:102BD0000000000000000000080030006000080055
:102BE000300060000000022003FC1E20022003FCD5
:102BF0001E200220000000000E1811043FFF108468
:102C00000C78000000000F0010840F3800C0077817
:102C100018840078000000780F8410C411240E98E6
:102C200000E4008400080800680070000000000054
:102C300000000000000000000000000007E018187D
:102C4000200440020000000040022004181807E0A1
:102C50000000000000000240024001800FF00180EF
:102C60000240024000000080008000800FF80080D9
:102C70000080008000000001000D000E0000000038
:102C80000000000000000000008000800080008044
:102C90000080008000800000000C000C000000009C
:102CA0000000000000000000000600180060018025
:102CB000060018002000000007F0080810041004A7
:102CC000080807F000000000080408041FFC0004C6
:102CD00000040000000000000E0C1014102410442A
:102CE00011840E0C000000000C18100411041104D3
:102CF00012880C700000000000E003200424082467
:102D00001FFC0024000000001F981084110411040F
:102D1000108810700000000007F0088811041104EA
:102D200018880070000000001C00100010FC130048
:102D30001C001000000000000E38114410841084A4
:102D400011440E38000000000700088C10441044A5
:102D5000088807F00000000000000000030C030CCE
:102D6000000000000000000000000001010600005B
:102D7000000000000000000000800140022004105C
:102D80000808100400000220022002200220022075
:102D90000220022000000000100408080410022095
:102DA00001400080000000000E001200100C106CAA
:102DB00010800F00000003E00C1813E4142417C463
:102DC000082807D000000004003C03C41C40074052
:102DD00000E4001C000410041FFC11041104110481
:102DE0000E880070000003E00C181004100410049A
:102DF00010081C10000010041FFC10041004100424
:102E0000080807F0000010041FFC1104110417C487
:102E100010040818000010041FFC1104110017C052
:102E200010000800000003E00C1810041004104407
:102E30001C780040000010041FFC108400800080FB
:102E400010841FFC10040000100410041FFC100468
:102E500010040000000000030001100110011FFE1B
:102E600010001000000010041FFC11040380146403
:102E7000181C1004000010041FFC100400040004BF
:102E80000004000C000010041FFC1F0000FC1F00C9
:102E90001FFC1004000010041FFC0C04030000E0E1
:102EA00010181FFC100007F008081004100410048C
:102EB000080807F0000010041FFC10841080108028
:102EC00010800F00000007F0081810241024101CB8
:102ED000080A07F2000010041FFC1104110011C0C1
:102EE00011300E0C000400000E1C1104108410841C
:102EF00010441C3800001800100010041FFC1004BF
:102F000010001800000010001FF810040004000456
:102F100010041FF8100010001E0011E0001C0070CB
:102F200013801C0010001FC0103C00E01F0000E0D8
:102F3000103C1FC000001004180C163401C001C062
:102F40001634180C100410001C00130400FC1304A9
:102F50001C00100000000804101C106410841304EE
:102F60001C04101800000000000000007FFE40025A
:102F7000400240020000000030000C0003800060AE
:102F8000001C0003000000004002400240027FFEDF
:102F90000000000000000000000020004000400091
:102FA00040002000000000010001000100010001BC
:102FB000000100010001000040004000200000006E
:102FC00000000000000000000098012401440144BA
:102FD000014400FC000410001FFC008801040104EF
:102FE00000880070000000000070008801040104E7
:102FF0000104008800000000007000880104010442
:1030000011081FFC0004000000F8014401440144C1
:10301000014400C800000000010401040FFC110479
:10302000110411001800000000D60129012901290E
:1030300001C90106000010041FFC0084010001000A
:10304000010400FC000400000104190419FC000440
:10305000000400000000000000030001010119014C
:1030600019FE0000000010041FFC0024004001B401
:10307000010C010400000000100410041FFC0004F7
:10308000000400000000010401FC0104010001FC37
:103090000104010000FC010401FC008401000100A6
:1030A000010400FC0004000000F801040104010414
:1030B000010400F80000010101FF00850104010482
:1030C0000088007000000000007000880104010406
:1030D000010501FF00010104010401FC0084010459
:1030E000010001800000000000CC01240124012423
:1030F00001240198000000000100010007F801040C
:10310000010400000000010001F8000400040004B4
:10311000010801FC0004010001800170000C001096
:1031200001600180010001F0010C003001C000309D
:10313000010C01F0010000000104018C0074017019
:10314000018C01040000010101810171000E0018D1
:1031500001600180010000000184010C0134014480
:103160000184010C000000000000000000000100CC
:103170003EFC400240020000000000000000FFFF93
:103180000000000000000000400240023EFC010080
:10319000000000000000000060008000800040008F
:1031A000400020002000000000000000000000009F
:1031B000000000000000000000000000000000000F
:1031C00000000000000000000000000000000000FF
:1031D0000000000000000000000F80380FFE380FD4
:1031E0008038000000000000000000000000000027
:1031F000000000000100000600000C000038000084
:103200003100000600000C00003800003000000013
:1032100000000000000061800067F807F98000618D
:10322000800061800061800061800067F807F9809C
:1032300000618000000000000000000001C0E00309
:10324000E0F00630080418081FFFFE040E08078788
:10325000F00381E000000000000001F000060C0017
:10326000040408060C7001F9C0000E00003BE000E9
:10327000EC18070808040C180003E0000000000127
:10328000E00007F003F818041C0804170807E1D051
:1032900003C0E00023B0003C08002008000010003C
:1032A00000000000000100003100003200001C009E
:1032B000000000000000000000000000000000000E
:1032C00000000000000000000000000000000000FE
:1032D0000000000000007F0001FFC00780F00C002C
:1032E000181000042000020000000000002000026E
:1032F0001000040C00180780F001FFC0007F0000E0
:1033000000000000000000000000000000000000BD
:1033100000004200006600006600003C000018004B
:1033200003FFC0001800003C0000660000660000BB
:10333000420000000000080000080000080000082B
:103340000000080001FFC00008000008000008009D
:10335000000800000800000000000001000031002B
:10336000003200001C00000000000000000000000F
:103370000000000000000000000000000000080045
:103380000008000008000008000008000008000015
:10339000080000080000080000080000000000000D
:1033A0000000000000003800003800003800000075
:1033B000000000000000000000000000000000000D
:1033C000000000000000000600001C00007000016A
:1033D00080000E0000380000C0000700001C000044
:1033E000300000000000000000007F8001FFE003CB
:1033F0008070060018040008040008060018038006
:103400007001FFE0007F800000000000000000006D
:1034100001000801000801000803FFF807FFF80099
:103420000008000008000008000000000000000084
:103430000001C03802C058040098040118040218A2
:10344000040418061C1803F81801E0F80000000036
:10345000000000000001C0E003C0F0040008040800
:103460000804080806180803F41801E7F00001E052
:10347000000000000000000000000300000D00003C
:10348000110000610000810803010807FFF80FFF29
:10349000F80001080001080000000000000000E042
:1034A00007FCD006080806100806100806100806D3
:1034B0001838060FF00607C00000000000000000EA
:1034C00000003F8001FFE003843002081804100868
:1034D000041008041008071810030FF00007C000BC
:1034E000000000000000000003C00007000006000C
:1034F000000600F80607F806180006E000070000BE
:1035000006000000000000000001E1E003F7F00603
:103510003410041808041808040C08040C080616D3
:103520001803F3F001C1E000000000000000F80003
:1035300003FC3003063804020804020804020804ED
:1035400004100308F001FFC0007F0000000000002D
:1035500000000000000000000000000000007038C3
:10356000007038007038000000000000000000000B
:10357000000000000000000000000000000000004B
:103580000000301A00301C000000000000000000A5
:103590000000000000000000000000000008000023
:1035A0001400002200004100008080010040020061
:1035B00020040010080008000000000000002100A6
:1035C0000021000021000021000021000021000056
:1035D0002100002100002100002100000000000067
:1035E0000000000008000804001002002001004054
:1035F000008080004100002200001400000800004C
:10360000000000000003C00004C000040000080027
:1036100038080F380808380810000C300007E000A0
:1036200003C000000000000000003F8000FFE00336
:103630008070020F1006708804C088048308047F1D
:103640008802C09003012000FE400000080000181E
:103650000001F8003E0801C20007020007E2000076
:10366000FE00001FC80001F8000038000008040038
:103670000807FFF807FFF80408080408080408080A
:1036800004080806180803F41801E7F00001E00038
:103690000000000000003F8001FFE0038070020096
:1036A00018040008040008040008040010060020A4
:1036B0000780C000000004000807FFF807FFF804B7
:1036C0000008040008040008040018020010038029
:1036D0007001FFE0007F8000000004000807FFF891
:1036E00007FFF80408080408080408080408080488
:1036F0003E080400080600180100600000000400F5
:103700000807FFF807FFF804080804080004080089
:10371000040800043E0006000006000001800000CE
:103720000000000000003F8001FFE0038070060001
:10373000180400080402080402080203F00783F0DA
:1037400000020000020004000807FFF807FFF80469
:10375000080800080000080000080000080004082D
:103760000807FFF807FFF804000800000000000049
:1037700004000804000804000807FFF807FFF80425
:103780000008040008040008000000000000000019
:103790000000000600000700000104000104000111
:1037A00004000307FFFE07FFFC0400000400000400
:1037B000000004000807FFF807FFF8040C080018D1
:1037C00000003E0004C7800503C80600F804003866
:1037D00004001800000804000807FFF807FFF804B9
:1037E00000080000080000080000080000080000B1
:1037F0000800001800006000000004000807FFF83F
:1038000007800807FC00007FC00003F80007C00025
:10381000780007800807FFF807FFF8040008040095
:103820000807FFF807000803C00000E000003800A8
:10383000001E000007000001C00400F007FFF804AC
:103840000000000000007F8001FFE00380700600A0
:103850001804000804000806001803003001FFE007
:10386000007F8000000004000807FFF807FFF8044D
:103870000408040400040400040400040400060C0A
:103880000003F80001F000000000000000007F804D
:1038900001FFE00380700600880400880400C80669
:1038A000003C03003E01FFE6007F840000000400AE
:1038B0000807FFF807FFF8040808040800040C00D4
:1038C000040F00040BC00610F003F03801E00800FC
:1038D000000800000001E0F803F030063010041882
:1038E00008041808040C08040C080206180207F063
:1038F0000781E000000001800006000004000004D1
:10390000000004000807FFF807FFF804000804009F
:103910000004000006000001800004000007FFE032
:1039200007FFF0040018000008000008000008006D
:10393000000800000804001007FFE0040000040075
:103940000006000007E00007FE00041FE00001F889
:103950000000380001E0043E0007C000060000043B
:10396000000004000007E00007FFC0041FF8000784
:10397000C007F80007FF80043FF80007C004F80004
:1039800007000004000000000004000806001807FB
:10399000C07805F1C8003E00001F800463E807807E
:1039A000F8060018040008000000040000060000EB
:1039B00007800007E008047C08001FF80007F800F3
:1039C000180804E0080700000600000400000000DA
:1039D000000100080600380400F80403E8040F089A
:1039E000047C0805F00807C0080700180400600000
:1039F00000000000000000000000000000000000C7
:103A0000003FFFFE200002200002200002200002F2
:103A10002000020000000000000000000800000775
:103A2000000000C0000038000006000001C00000D7
:103A30003000000E00000100000000000000000047
:103A40002000022000022000022000022000023F8D
:103A5000FFFE000000000000000000000000000069
:103A6000000000000000000800001000003000000E
:103A700020000030000010000008000000000000DE
:103A80000000000001000001000001000001000032
:103A90000100000100000100000100000100000120
:103AA00000000100000100000000000000000020F4
:103AB00000002000001000001000000000000000C6
:103AC000000000000000000000000000000000F006
:103AD0000019F8001B18002208002608002408001E
:103AE0002410003FF8001FF8000008000018000034
:103AF0000004000007FFF80FFFF00018180010087E
:103B0000002008002008003018001FF0000FC0003F
:103B100000000000000007C0001FF0001830002067
:103B200008002008002008003C08001C100000606D
:103B30000000000000000000000007C0001FF000AF
:103B4000381800200800200800200804101007FF83
:103B5000F80FFFF00000100000000000000000005F
:103B60000007C0001FF000123000221800220800D9
:103B70002208003208001E10000E20000000000085
:103B80000000200000200800200801FFF803FFF8D3
:103B90000620080420080420080720000300000075
:103BA000000000000000000E000E6E001FF3003148
:103BB000B10020B10020B1003191001F13002E1E72
:103BC00000200E00300000000004000807FFF80F7E
:103BD000FFF8001008002000002000002008003F2F
:103BE000F8001FF8000008000000000000000000BE
:103BF000002008002008002008063FF8063FF800D3
:103C0000000800000800000800000000000000009C
:103C1000000000000000030000030020010020015C
:103C2000002003063FFE063FFC00000000000000ED
:103C3000000000000004000807FFF80FFFF8000173
:103C400088000300002FC00038F80020380020084A
:103C5000000008000000000000000000040008044C
:103C6000000804000807FFF80FFFF8000008000034
:103C700008000008000000000000002008003FF8D5
:103C8000003FF8001008002000003FF8003FF80057
:103C90001008002000003FF8003FF8000008000076
:103CA00000002008003FF8003FF800100800100056
:103CB000002000002008003FF8001FF80000080066
:103CC00000000000000007C0000FF00018300030B6
:103CD00008002008002008003008001830000FF00D
:103CE0000007C0000000000000002001003FFF00AE
:103CF0003FFF0010110020090020080020080030BC
:103D000038001FF0000FC00000000000000007C0D6
:103D1000001FF000381800200800200800200900CB
:103D20001011001FFF003FFF0000010000000020F5
:103D300008002008002008003FF8003FF8000808AD
:103D400000100800200800200000300000300000B3
:103D50000000000000000000000C78001E18003376
:103D6000080023080021080021880021980030F075
:103D7000003860000000000000002000002000006B
:103D8000200000FFF003FFF80020080020080020BA
:103D900008000030000000000000000000002000CB
:103DA000003FF0007FF80000180000080000080045
:103DB0002010003FF8007FF000001000000000001D
:103DC00000002000003000003C00003F800023F095
:103DD000000078000070002380003C0000300000EC
:103DE0002000002000003C00003FE00023F800001D
:103DF000E0002700003E00003FE00021F80001E065
:103E0000003E000020000000000020080020080004
:103E10003838003E680027800003C8002CF80038BE
:103E200038002018002008000000000000002000DA
:103E3000003003003C01003F830023EC00007000D1
:103E40002380003C00002000002000000000000053
:103E5000000000000038080020380020F80023E8A7
:103E6000002F88003E08003808002018000070006D
:103E70000000000000000000000000000000000042
:103E8000000008000014001FF7FC300006200002AC
:103E90000000000000000000000000000000000022
:103EA0000000000000000000FFFFFF000000000015
:103EB0000000000000000000000000000000000002
:103EC0002000023000061FF7FC001400000800006C
:103ED00000000000000000000000000000000000E2
:103EE00000180000600000400000400000200000BA
:103EF0001000000800000400000400000C00001086
:103F000000000000000000000000002F0000000082
:103F10000700070000147F147F1400242A7F2A1250
:103F2000006264081323003649552250000005033F
:103F3000000000001C224100000041221C0000146F
:103F4000083E08140008083E0808000000A06000B1
:103F50000008080808080000606000000020100841
:103F60000402003E5149453E0000427F40000042AD
:103F700061514946002141454B31001814127F1010
:103F8000002745454539003C4A494930000171093F
:103F9000050300364949493600064949291E0000F3
:103FA000363600000000563600000008142241009A
:103FB00000141414141400004122140800020151CA
:103FC000090600324959513E007C1211127C007FD3
:103FD00049494936003E41414122007F4141221C6E
:103FE000007F49494941007F09090901003E4149D3
:103FF000497A007F0808087F0000417F41000020C7
:1040000040413F01007F08142241007F4040404072
:10401000007F020C027F007F0408107F003E4141B8
:10402000413E007F09090906003E4151215E007FA3
:10403000091929460046494949310001017F01011A
:10404000003F4040403F001F2040201F003F4038BD
:10405000403F0063140814630007087008070061FC
:104060005149454300007F41410000552A552A55DA
:10407000000041417F000004020102040040404072
:104080004040000001020400002054545478007F96
:104090004844443800384444442000384444487F6D
:1040A00000385454541800087E0901020018A4A4D2
:1040B000A47C007F080404780000447D4000004098
:1040C00080847D00007F102844000000417F400074
:1040D000007C04180478007C080404780038444408
:1040E000443800FC242424180018242418FC007CE4
:1040F0000804040800485454542000043F4440205D
:10410000003C4040207C001C2040201C003C4030F3
:10411000403C004428102844001CA0A0A07C00447F
:1041200064544C44141414141414000000000000CF
:1041300000000000000000000000000000F8000087
:104140000000000000333000000000100C06100CCE
:104150000600000000000000000040C07840C07869
:104160004000043F04043F040400007088FC083051
:104170000000001820FF211E0000F008F000E018E9
:10418000000000211C031E211E0000F008887000A2
:1041900000001E2123241927211010160E000000F4
:1041A00000000000000000000000000000E0180413
:1041B0000200000000071820400000020418E00080
:1041C00000000040201807000000404080F08040C0
:1041D00040000202010F01020200000000F0000096
:1041E00000000101011F01010100000000000000AA
:1041F000000080B07000000000000000000000001F
:1042000000000001010101010101000000000000A7
:10421000000000303000000000000000000080605E
:104220001804006018060100000000E010080810E3
:10423000E000000F102020100F00001010F8000008
:1042400000000020203F202000000070080808889F
:10425000700000302824222130000030088888486F
:1042600030000018202020110E000000C02010F89F
:10427000000000070424243F240000F80888880870
:1042800008000019212020110E0000E01088881875
:104290000000000F112020110E0000380808C83857
:1042A00008000000003F0000000000708808088837
:1042B0007000001C222121221C0000E010080810C0
:1042C000E0000000312222110F00000000C0C000F9
:1042D00000000000003030000000000000800000FE
:1042E00000000000806000000000000080402010FE
:1042F00008000001020408102000404040404040F7
:104300004000040404040404040000081020408059
:10431000000000201008040201000070480808088E
:10432000F0000000003036010000C030C828E8105E
:10433000E0000718272423140B000000C038E00019
:104340000000203C23020227382008F88888887063
:104350000000203F202020110E00C030080808086F
:104360003800071820202010080008F80808081056
:10437000E000203F202020100F0008F88888E8087F
:104380001000203F20202320180008F88888E80823
:104390001000203F200003000000C030080808384B
:1043A000000007182020221E020008F8080000085C
:1043B000F808203F210101213F20000808F80808E3
:1043C00000000020203F2020000000000808F8081E
:1043D0000800C08080807F00000008F888C028188E
:1043E0000800203F20012638200008F808000000BF
:1043F0000000203F20202020300008F8F800F8F8C6
:104400000800203F003F003F200008F830C00008AF
:10441000F808203F200007183F00E01008080810A7
:10442000E0000F10202020100F0008F808080808EE
:10443000F000203F210101010000E01008080810F1
:10444000E0000F18242438504F0008F88888888826
:104450007000203F2000030C3020007088080808FE
:1044600038000038202121221C00180808F808080C
:1044700018000000203F2000000008F80800000895
:10448000F808001F202020201F000878880000C89E
:104490003808000007380E010000F80800F800088E
:1044A000F800033C0700073C030008186880806898
:1044B000180820302C03032C30200838C800C838D6
:1044C00008000000203F2000000010080808C8383D
:1044D00008002038262120201800000000FE0202DB
:1044E00002000000007F40404000000C30C000008F
:1044F0000000000000010638C00000020202FE00B9
:104500000000004040407F00000000000402020262
:104510000400000000000000000000000000000097
:104520000000808080808080808000020204000083
:10453000000000000000000000000000808080807B
:1045400000000019242222223F2008F80080800069
:104550000000003F112020110E000000008080802C
:104560000000000E11202020110000000080808833
:10457000F800000E112020103F2000008080808075
:104580000000001F222222221300008080F0888871
:1045900088180020203F20200000000080808080BC
:1045A0008000006B94949493600008F800808080F1
:1045B0000000203F210000203F200080989800004C
:1045C00000000020203F202000000000008098987C
:1045D000000000C08080807F000008F8000080801C
:1045E0008000203F24022D302000000808F8000041
:1045F00000000020203F20200000808080808080FC
:104600008000203F20003F20003F8080008080808D
:104610000000203F210000203F200000808080809B
:104620000000001F202020201F00808000808000CC
:10463000000080FFA12020110E000000008080807B
:104640008000000E112020A0FF80808080008080EC
:10465000800020203F212000010000008080808019
:1046600080000033242424241900008080E080800E
:1046700000000000001F202000008080000000805B
:104680008000001F202020103F20808080000080BC
:10469000808000010E3008060100808000800080CC
:1046A00080800F300C030C300F0000808000808071
:1046B00080000020312E0E3120008080800000809C
:1046C000808080818E70180601000080808080804C
:1046D00080000021302C2221300000000000807C6E
:1046E000020200000000003F404000000000FF0008
:1046F000000000000000FF0000000002027C8000BB
:1047000000000040403F00000000000601010202DE
:104710000404000000000000000000030306010480
:104720000602050003051F1C1F1E1F1E1F1F1E1F44
:104730001E1F000054470008000000203800000041
:10474000280100088C47000838000020480B0000B2
:10475000440100080000000000000000000000000C
:104760000000000000A24A04000000000000000059
:104770000102030406070809000000000102030407
:0C478000010203040607080902040608F1
:04000005080001915D
:00000001FF
